:100000000C9447050C946F050C946F050C946F05C8
:100010000C946F050C946F050C946F050C946F0590
:100020000C946F050C946F050C946F050C946F0580
:100030000C946F050C946F050C946F050C946F0570
:100040000C9440160C946F050C94B0160C948A1600
:100050000C946F050C946F050C946F050C946F0550
:100060000C94E2160C946F0500000000003E5B4FFC
:100070005B3E3E6B4F6B3E1C3E7C3E1C183C7E3C08
:10008000181C577D571C1C5E7F5E1C00183C180016
:10009000FFE7C3E7FF0018241800FFE7DBE7FF30A6
:1000A000483A060E2629792926407F050507407F14
:1000B00005253F5A3CE73C5A7F3E1C1C08081C1C87
:1000C0003E7F14227F22145F5F005F5F06097F017D
:1000D0007F006689956A606060606094A2FFA29468
:1000E00008047E040810207E201008082A1C080836
:1000F0001C2A08081E101010100C1E0C1E0C303884
:100100003E3830060E3E0E06000000000000005F84
:1001100000000007000700147F147F14242A7F2AA0
:100120001223130864623649562050000807030062
:10013000001C2241000041221C002A1C7F1C2A08AE
:10014000083E080800807030000808080808000011
:1001500060600020100804023E5149453E00427F85
:10016000400072494949462141494D331814127FD4
:100170001027454545393C4A494931412111090774
:100180003649494936464949291E000014000000F5
:1001900040340000000814224114141414140041C7
:1001A00022140802015909063E415D594E7C121184
:1001B000127C7F494949363E414141227F414141BC
:1001C0003E7F494949417F090909013E4141517337
:1001D0007F0808087F00417F41002040413F017FA8
:1001E000081422417F404040407F021C027F7F0470
:1001F00008107F3E4141413E7F090909063E4151B9
:10020000215E7F09192946264949493203017F01A8
:10021000033F4040403F1F2040201F3F4038403FA9
:10022000631408146303047804036159494D4300BF
:100230007F4141410204081020004141417F0402F6
:10024000010204404040404000030708002054548D
:1002500078407F284444383844444428384444286B
:100260007F385454541800087E090218A4A49C78BE
:100270007F0804047800447D40002040403D007F1A
:100280001028440000417F40007C047804787C08FA
:100290000404783844444438FC18242418182424CE
:1002A00018FC7C08040408485454542404043F44B3
:1002B000243C4040207C1C2040201C3C4030403CE2
:1002C00044281028444C9090907C4464544C440042
:1002D00008364100000077000000413608000201A6
:1002E0000204023C2623263C1EA1A161123A404092
:1002F000207A38545455592155557941225454780F
:1003000042215554784020545579400C1E527212A7
:100310003955555559395454545939555454580030
:1003200000457C410002457D420001457C407D1234
:1003300011127DF0282528F07C5455450020545496
:100340007C547C0A097F4932494949323A44444441
:100350003A324A4848303A4141217A3A424020787C
:10036000009DA0A07D3D4242423D3D4040403D3C7D
:1003700024FF2424487E4943662B2FFC2F2BFF09A2
:1003800029F620C0887E0903205454794100004496
:100390007D413048484A32384040227A007A0A0A81
:1003A000727D0D19317D2629292F282629292926F4
:1003B00030484D4020380808080808080808382F39
:1003C00010C8ACBA2F102834FA00007B00000814C3
:1003D0002A142222142A14085500550055AA55AA99
:1003E00055AAFF55FF55FF000000FF00101010FF39
:1003F00000141414FF001010FF00FF1010F010F094
:10040000141414FC001414F700FF0000FF00FF1484
:1004100014F404FC141417101F10101F101F1414D0
:10042000141F00101010F0000000001F101010101A
:100430001F10101010F010000000FF10101010100E
:1004400010101010FF10000000FF140000FF00FF4C
:1004500000001F10170000FC04F4141417101714E8
:1004600014F404F40000FF00F7141414141414140A
:10047000F700F7141414171410101F101F1414147D
:10048000F4141010F010F000001F101F0000001FE7
:1004900014000000FC140000F010F01010FF10FF1A
:1004A000141414FF141010101F00000000F010FFAF
:1004B000FFFFFFFFF0F0F0F0F0FFFFFF0000000093
:1004C00000FFFF0F0F0F0F0F3844443844FC4A4A17
:1004D0004A347E02020606027E027E0263554941CC
:1004E000633844443C04407E201E2006027E020203
:1004F00099A5E7A5991C2A492A1C4C7201724C3017
:100500004A4D4D303048784830BC625A463D3E49ED
:100510004949007E0101017E2A2A2A2A2A44445F91
:10052000444440514A444040444A51400000FF0185
:1005300003E080FF000008086B6B08361236243693
:10054000060F090F060000181800000010100030F8
:1005500040FF0101001F01011E00191D1712003C80
:100560003C3C3C0000000000000103070F1F3F7FE0
:100570000080C0E0F0F8FCFEDB40A4A62EAF200017
:10058000A1C8D300408DAED580A800006000000057
:100590000000000000000000000000E0000000007B
:1005A00000000000000000000001E000000000006A
:1005B000000000000000000001F00000000000004A
:1005C0000000000000000003F00000000000000038
:1005D00000000000000007F0000000000000000024
:1005E000000000000007F80000000000000000000C
:1005F000000000000FF800000003C0007E000001B2
:10060000E0007F0FF800000003C000FE000001E0E2
:1006100000FFEFF800000003C000FE000001E00052
:10062000FFFFF800000003C000F00000000F007F93
:10063000FE7FC0000003C000F00000000F003FFE7E
:100640007FF83FF1FBCFFCFEF3BC3DEFE01FFE7FE8
:10065000FF7FFBFFDFFEFEFFBC3DEFE01FC6FFFF9D
:100660007FFBFFDFFEFEFFBC3DEFE00FE3C7FE7840
:100670007BC3DE1EF0FFBC3DEF0007FF87FC787BED
:10068000C3DE1EF0F83C3DEF0001FFFFF0007BC32E
:10069000C01EF0F03C3DEF0001F37FE03FFBC3CF15
:1006A000FEF0F03C3DEF0003E33F807FFBC3DFFE45
:1006B000F0F03C3DEF0007E73C00787BC3DE1EF026
:1006C000F03C3DEF0007FFBE00787BC3DE1EF0F07C
:1006D0003C3DEF0007FFFE00787BC3DE1EF0F03CE0
:1006E0003DEF000FFFFE007FFBFFDFFEF0F03FFD60
:1006F000EFE00FFFFF007FFBFFDFFEF0F03FFDEFBD
:10070000E00FF9FF003E79F9CF9EF0F01F3DE7E0E2
:100710001FF1FF0000000000000000000000001FAB
:1007200080FF007FFFFFFFFFFFFFFFFFFFE01C00D8
:100730007F007FFFFFFFFEB46D888D18E000001F73
:10074000007FFFFFFFFE95AD7DB577E000000F0055
:100750007FFFFFFFFEA5AD9D8D19E0000006007F25
:10076000FFFFFFFEB5ADEDB57EE00000000000012B
:100770008000000000000000000003800000000076
:10078000000000000007C0000000000000000000A2
:1007900007C00000000000000000000FC0000000C3
:1007A0000000000000001FE000000000000000004A
:1007B000001FE00000000000000000003FE000001B
:1007C000000000000000003FF000000000000000FA
:1007D00000007FF0000000000000001FF87FF00024
:1007E0000000000000003FFE7FF00000000000005D
:1007F000003FFF7FF0000000000000001FFFFBE053
:10080000000000000000000FFFF9FFC00000000022
:1008100000000FFFF9FFF800000000000007FFF1E3
:10082000FFFF00000000000003FC73FFFF800000DA
:1008300000000001FE3FFFFF80000000000000FFFD
:100840001E0FFF000000000000007FFE1FFC0000E4
:1008500000000000003FFFFFF80000000000000063
:100860000FDFFFE0000000000000001F19FFC000C4
:100870000000000000003F3CFF00000000000000FE
:10088000007E7CF800000000000000007FFE7C007D
:1008900000000000000000FFFFFC0000000000005E
:1008A0000000FFFFFE0000000000000000FFFFFE50
:1008B0000000000000000001FFEFFE00000000004B
:1008C000000001FFCFFE0000000000000003FF0752
:1008D000FE0000000000000003FC07FE0000000016
:1008E00000000003F003FE00000000000000018093
:1008F00000FE000000000000000000007E0000007C
:10090000000000000000003E0000000000000000A9
:1009100000000C000000000000078000FC00000345
:10092000C0000000078001FC000003C000000007B9
:100930008001FC000003C0000000078001E000000F
:10094000001E000000078001E00000001E007FE3A1
:10095000F79FF9FDE7787BDFC0FFF7FFBFFDFDFFE5
:10096000787BDFC0FFF7FFBFFDFDFF787BDFC0F0C6
:10097000F787BC3DE1FF787BDE00F0F787BC3DE107
:10098000F0787BDE0000F787803DE1E0787BDE00D9
:100990007FF7879FFDE1E0787BDE00FFF787BFFDF3
:1009A000E1E0787BDE00F0F787BC3DE1E0787BDEBC
:1009B00000F0F787BC3DE1E0787BDE00F0F787BC14
:1009C0003DE1E0787BDE00FFF7FFBFFDE1E07FFB6C
:1009D000DFC0FFF7FFBFFDE1E07FFBDFC07CF3F38B
:1009E0009F3DE1E03E7BCFC0000000000000000022
:1009F000000000FFFFFFFFFFFFFFFFFFFFC0FFFF43
:100A0000FFFFFD68DB111A31C0FFFFFFFFFD2B5A0E
:100A1000FB6AEFC0FFFFFFFFFD4B5B3B1A33C0FFDC
:100A2000FFFFFFFD6B5BDB6AFDC02200FF210000C2
:100A3000000000240027002A0000000000250028F4
:100A4000002B000000000800020100000304070062
:100A50000000000000000000000000230026002924
:100A60000004040404040404040202020202020357
:100A70000303030303010204081020408001020461
:100A8000081020010204081020004618751F1124C8
:100A90001FBECFEFD8E0DEBFCDBF11E0A0E0B1E0D8
:100AA000ECE4F6E402C005900D92A23CB107D9F740
:100AB00023E0A2ECB1E001C01D92A839B207E1F732
:100AC00015E0C6E4D5E004C02197FE010E94E221B2
:100AD000C534D107C9F70E94E9180C9419230C9466
:100AE00000000895CF92DF92EF92FF92CF93DF93B1
:100AF000B0918803A0E08111AB2F8091890390E031
:100B0000880F991FAC01495A554FC0908E03D09061
:100B10008F03E0909003F090910330E020E0FA0121
:100B2000C591D491E881B90190E080E0EB23EA130C
:100B30000AC02F5F3F4F6C157D058E059F0578F32A
:100B40006FEF7FEFCB01DF91CF91FF90EF90DF90C0
:100B5000CF90089590E0FC01ED5BF54F2491FC01EE
:100B6000EB58F54F3491FC01EF59F54FE491EE232A
:100B7000C9F0222339F0233001F1A8F4213019F112
:100B8000223029F1F0E0EE0FFF1FE75CF54FA59151
:100B9000B4918FB7F894EC91611126C030953E2343
:100BA0003C938FBF08952730A9F02830C9F0243036
:100BB00049F7809180008F7D03C0809180008F77FE
:100BC00080938000DFCF84B58F7784BDDBCF84B581
:100BD0008F7DFBCF8091B0008F778093B000D2CF14
:100BE0008091B0008F7DF9CF3E2BDACFCF93DF938A
:100BF00090E0FC01EB58F54F24918F59954FFC0183
:100C000084918823C9F090E0880F991FFC01E15D71
:100C1000F54FA591B491FC01E75CF54FC591D491D6
:100C200061110DC09FB7F8948C91209582238C930D
:100C30008881282328839FBFDF91CF910895623058
:100C400051F49FB7F8943C91822F809583238C9325
:100C5000E8812E2BEFCF8FB7F894EC912E2B2C93AD
:100C60008FBFEACF8E50806480937C0080917A00A1
:100C7000806480937A0080917A0086FDFCCF809119
:100C800078009091790008953FB7F89480918C0294
:100C900090918D02A0918E02B0918F0226B5A89BF3
:100CA00005C02F3F19F00196A11DB11D3FBFBA2FFE
:100CB000A92F982F8827BC01CD01620F711D811DBE
:100CC000911D42E0660F771F881F991F4A95D1F743
:100CD00008958F929F92AF92BF92CF92DF92EF9240
:100CE000FF924B015C010E9444066B017C010E9453
:100CF00044066C197D098E099F09683E7340810581
:100D00009105A8F321E0821A9108A108B10888EEA4
:100D1000C80E83E0D81EE11CF11C81149104A104CB
:100D2000B10429F7FF90EF90DF90CF90BF90AF9084
:100D30009F908F900895CF92DF92EF92FF920F9342
:100D40001F93CF93DF93CDB7DEB7C054D1400FB61A
:100D5000F894DEBF0FBECDBF2FB7F89480919002FC
:100D600090919102A0919202B09193022FBF409175
:100D70008A0350918B0360918C0370918D038C01D9
:100D80009D01041B150B260B370BB901A801403D33
:100D900057406105710590F480919203C05CDE4F6D
:100DA0000FB6F894DEBF0FBECDBFDF91CF911F917C
:100DB0000F91FF90EF90DF90CF90089580938A037A
:100DC00090938B03A0938C03B0938D0310928503B3
:100DD0001092840310928303109282031092810375
:100DE00062E0809186030E94F60561E070E080E099
:100DF00090E00E94690661E0809186030E94F605FA
:100E000060E0809186030E94AA0580918703855146
:100E1000823020F58BE291E10197F1F762E0809159
:100E200086030E94F6058091930390E0823091053D
:100E300038F0880F991F880F991F05970197F1F7D0
:100E4000F89480E00E9472056F3F7F4F8F4F9F4F55
:100E500061F410929203789480E0A0CF64E170E096
:100E600080E090E00E946906D9CF81E00E9472057F
:100E70006F3F7F4F8F4F9F4F61F38E010F5F1F4F6B
:100E80006E018FEBC81A8EEFD80A780180E00E94BD
:100E90007205F701608371838283938381E00E94EE
:100EA0007205F7016483758386839783F8E0EF0EFC
:100EB000F11CEC14FD0451F7789430E020E0F801C7
:100EC000C080D180E280F380448155816681778142
:100ED000FFEFCF16DF06EF06FF0631F04F3F8FEF33
:100EE00058076807780719F410929203B5CFF901F3
:100EF00083E0F595E7958A95E1F7EF57FC4F808100
:100F0000880FC416D506E606F70610F180832F5F1A
:100F10003F4F085F1F4F2832310589F64091850306
:100F20002091810380918203280F3327331F809102
:100F30008303280F311D80918403820F932F911D0D
:100F400099274817190681F681E08093920326CFEE
:100F50008160DCCF08950895DC01ED91FC91019052
:100F6000F081E02D0994AF92BF92CF92DF92EF9281
:100F7000FF920F931F93CF93DF936C017B018B0143
:100F8000040F151FEB015E01AE18BF08C017D10793
:100F900059F06991D601ED91FC910190F081E02D1D
:100FA000C6010995892B79F7C501DF91CF911F9172
:100FB0000F91FF90EF90DF90CF90BF90AF9008958A
:100FC000FC01538D448D252F30E0842F90E0821B4F
:100FD000930B541710F0CF96089501970895FC01D4
:100FE000918D828D981761F0A28DAE0FBF2FB11D2C
:100FF0005D968C91928D9F5F9F73928F90E0089584
:101000008FEF9FEF0895FC01918D828D981731F03D
:10101000828DE80FF11D858D90E008958FEF9FEF91
:101020000895FC01918D228D892F90E0805C9F4F67
:10103000821B91098F739927089588E992E00E9495
:10104000110821E0892B09F420E0822F089580E027
:1010500090E0892B29F00E941D0881110C9400005A
:101060000895FC01A48DA80FB92FB11DA35ABF4F3D
:101070002C91848D90E001968F739927848FA68997
:10108000B7892C93A089B1898C91837080648C93EB
:10109000938D848D981306C00288F389E02D80819A
:1010A0008F7D80830895EF92FF920F931F93CF93CC
:1010B000DF93EC0181E0888F9B8D8C8D98131AC093
:1010C000E889F989808185FF15C09FB7F894EE897A
:1010D000FF896083E889F9898081837080648083D7
:1010E0009FBF81E090E0DF91CF911F910F91FF9022
:1010F000EF900895F62E0B8D10E00F5F1F4F0F73CA
:101100001127E02E8C8D8E110CC00FB607FCFACF84
:10111000E889F989808185FFF5CFCE010E943108E9
:10112000F1CFEB8DEC0FFD2FF11DE35AFF4FF08255
:101130009FB7F8940B8FEA89FB8980818062CFCFBB
:10114000CF93DF93EC01888D8823B9F0AA89BB89FE
:10115000E889F9898C9185FD03C0808186FD0DC0E9
:101160000FB607FCF7CF8C9185FFF2CF808185FF0A
:10117000EDCFCE010E943108E9CFDF91CF910895E4
:10118000EF92FF920F931F93CF93DF93EC01EC80CC
:10119000FD806E157F050CF070C057FF04C0240F52
:1011A000351F50E040E08E819F81FA01E20FF31F6E
:1011B0008E179F071CF49C01241B350B1216130677
:1011C0000CF05BC0922F842F8695869586958E9D18
:1011D000D0018F9DB00D11246A0F7B1FAF8DB8A178
:1011E000A60FB71F477049F188E0841B482F682F6E
:1011F00070E0FB01E059FA4FE491281708F063C052
:10120000621B71092FEF30E002C0359527956A9572
:10121000E2F7E2230130110539F0B0F10230110597
:1012200061F58C91E82702C08C91E82BEC93941720
:1012300020F12C813D81A20FB31FE92FE41BE83080
:1012400078F00230110521F58E2F9C9190959C939A
:101250002C813D81A20FB31F88508830B0F7E77012
:10126000EE2359F0F0E0E859FA4FE491013011050E
:10127000F9F010F10230110519F1DF91CF911F91B2
:101280000F91FF90EF900895E0958C91E823CECFD9
:1012900081E00115110509F480E081959E2F8C9362
:1012A0002C813D81A20FB31F98509830C0F7D7CF43
:1012B0008C91E82BEC93E1CFE0958C91E823FACF69
:1012C0008C91E827F7CF0130110509F4ADCFE0F29A
:1012D0000230110509F4A5CFAE0DBF1DAECF0F939F
:1012E0001F93CF93DF9377FF04C0260F371F70E063
:1012F00060E0DC011496CD91DC91FB01E20FF31F5D
:10130000CE17DF071CF49E01261B370B121613069F
:101310004CF5FA0157FD3796A3E0F595E795AA95A8
:10132000E1F7EC9FD001ED9FB00DFC9FB00D1124B3
:101330006A0F7B1FDC015F96ED91FC91E60FF71FB2
:101340004770552781E090E001C0880F4A95EAF781
:10135000482F0130110559F0A8F02E0F3F1F023021
:101360001105E1F0DF91CF911F910F9108952E0F9C
:101370003F1FE217F307B1F38191DF011197842B2F
:101380008C93F7CF80952E0F3F1FE217F30751F391
:101390009191DF01119798239C93F7CFE217F30700
:1013A00009F38191DF01119784278C93F7CF0F9375
:1013B0001F93FA01DC0156964C9156974230E9F0A2
:1013C0004330A1F1413061F514964D915C91DA0101
:1013D000AE1BBF0BFD01E21BF30B77FD0BC0DC0165
:1013E00016964D915C916417750724F4AB01BF010B
:1013F0000E946F091F910F91089514964D915C9171
:10140000DA01A61BB70BBD0161507109DC0116960C
:101410004D915C91DA01AE1BBF0BFD01E21BF30B9A
:1014200077FDE8CFAF010E94C008E4CF16964D913A
:101430005C91DA01A61BB70BBD0161507109CDCFDC
:101440000F931F93FA01DC0156964C915697423048
:10145000A9F0433091F1413019F514964D915C910A
:10146000DA01AE1BBF0BFD013197F7FD04C0AB01E4
:10147000BF010E94C0081F910F91089514964D91CD
:101480005C91DA01A61BB70BBD01DC0116964D91EC
:101490005C91DA01AE1BBF0BFD013197621B730B30
:1014A000F7FDE9CFDC0116964D915C91E417F50745
:1014B00014F7AF010E946F09DECF16964D915C9133
:1014C000DA01A61BB70BBD01621B730BCECFFC016B
:1014D00077FD64C080859185681779070CF05EC040
:1014E00057FD5CC082859385481759070CF056C09C
:1014F00086898230B1F0833029F1813041F48481D2
:101500009581841B950BAB01BC01615071092130A1
:10151000310509F108F443C02230310509F463C0F4
:10152000089584819581DC01A61BB70BBD01615034
:10153000710986819781DC01A41BB50BAD01415077
:101540005109E5CF86819781861B970BBA01AC01C3
:1015500041505109DCCFCA0157FD0796A3E095958C
:101560008795AA95E1F7A481B5818A9F90018B9F09
:10157000300D9A9F300D1124620F731F078CF0A15C
:10158000E02DE60FF71F4770552721E030E001C03E
:10159000220F4A95EAF78081822B80830895CA0141
:1015A00057FD079633E0959587953A95E1F7A48125
:1015B000B5818A9F90018B9F300D9A9F300D112429
:1015C000620F731F078CF0A1E02DE60FF71F477025
:1015D000552781E090E001C0880F4A95EAF7809591
:1015E00090818923DACFCA0157FD079623E09595AC
:1015F00087952A95E1F7A481B5818A9F90018B9FF9
:10160000300D9A9F300D1124620F731F078CF0A1CB
:10161000E02DE60FF71F4770552721E030E001C0AD
:10162000220F4A95EAF780818227B7CF08958EBDB1
:1016300000000DB407FEFDCF8EB508958CBD9DBD95
:1016400008950895FC016370668B848195812681DD
:101650003781613039F0633029F091878087338793
:1016600022870895318720879387828708952F9254
:101670003F924F925F926F927F928F929F92AF9222
:10168000BF92CF92DF92EF92FF920F931F93CF936F
:10169000DF93CDB7DEB76A970FB6F894DEBF0FBE03
:1016A000CDBF9A8F898F7A8369834A01D22E18879A
:1016B0000F833701BC2CDC0159962D913C915A9730
:1016C0002115310509F015C118968D919C91199736
:1016D000681779070CF0D7C11A968D919C9148171D
:1016E00059070CF0D0C14C2C512CB6E0CB9E600DAC
:1016F000711D11247C876B87161617060CF0C3C169
:10170000EA2DF0E0FA87E98793E0EE0FFF1F9A9544
:10171000E1F7F88BEF87CF01840F951F1816190694
:101720000CF0B1C1A98DBA8D58968C91811104C06D
:10173000BFEABD1508F4D394A98DBA8DED91FC9143
:1017400011970284F385E02DCD010995B5E0DB9E6C
:10175000C0011124E981FA81FC83EB83312C212C17
:101760009C0128593F4F388F2F8B4A2D50E05E8BBC
:101770004D8BEF89F88DE20DF31D44919E828D8291
:10178000D12CC12C69817A81620D731D7A8B698B92
:10179000842F90E09C8B8B8BE98DFA8DA081B18199
:1017A00040FF82C0F1E0BF126FC0AF126DC01C9647
:1017B000ED91FC912F813885A4014C0D5D1D698947
:1017C0007A89898D9A8D0995EB89FC89F595E7953C
:1017D0004E2F5FEFC51AD50A6D817E818D899E8956
:1017E000680F791F7E836D8398E0C916D10481F656
:1017F000AFEF2A1A3A0AEB81FC81E40DF51DFC8358
:10180000EB83F5E02F16310409F0B3CF2F81388533
:1018100026153705B9F0A98DBA8DED91FC91B1E08F
:10182000BB1257C0AB1255C069817A816B5F7F4F85
:101830000088F189E02D830128E030E0A401898D42
:101840009A8D0995A98DBA8DED91FC911197068815
:10185000F789E02DCD016A960FB6F894DEBF0FBE72
:10186000CDBFDF91CF911F910F91FF90EF90DF904F
:10187000CF90BF90AF909F908F907F906F905F9030
:101880004F903F902F9009941E96ED91FC91EF8020
:10189000F88409851A8592014D815E816B817C8176
:1018A000898D9A8D099590CF2F813885261537051A
:1018B00009F48ACF31E0B31207C0A31205C01C9609
:1018C000ED91FC91930178CF1E96ED91FC917301FF
:1018D000E0CF6B857C85641975090684F785E02D5A
:1018E00073010F8518899201A401898D9A8D09953C
:1018F000A9CFF90134969491329745915491D91A10
:10190000B7E0DB9E400D511D1124F9012591349162
:101910003C8B2B8BFA0125903490FA01329674900F
:1019200031963491398B329664903196449041E0EF
:101930004C1518F04A1508F07FC0662D062C000CD7
:10194000770B7C836B83842D042C000C990B9E8376
:101950008D83A98DBA8DED91FC9111970284F38549
:10196000E02DCD010995512CD12CC12CEA2DF0E0B0
:10197000FA87E9872B2D30E03C872B87A401440DA3
:10198000511D47FC5A95588F4F8B69817A81660D9E
:10199000711D67FC7A957E876D877989C71608F077
:1019A00051CF2C2D30E04D815E81420F531FA98510
:1019B000BA854A9FC0014B9F900D5A9F900D1124EC
:1019C000FC01E80DF91DF88BEF87852D612C4F89FF
:1019D000588D420F531F5E8B4D8B671408F050C01B
:1019E00044244394480E877041F4C1010196EB8969
:1019F000FC89E20DF31DD4901C01D7FE19C0A98DFE
:101A0000BA8DED91FC91662D70E0B1E0BB1219C06A
:101A1000AB1217C02D853E85620F731F0484F585B8
:101A2000E02D2F8138854D895E89898D9A8D0995A4
:101A3000DD0C6394842DD1CF1E821D821C821B82FB
:101A400088CF4B815C81640F751FAB85BC856A9F15
:101A5000C0016B9F900D7A9F900D112469817A814E
:101A6000680F791F0684F785E02DEF80F8840985DB
:101A70001A859D014F855889898D9A8D0995D8CFF2
:101A8000570CC3948ACF6A960FB6F894DEBF0FBE88
:101A9000CDBFDF91CF911F910F91FF90EF90DF901D
:101AA000CF90BF90AF909F908F907F906F905F90FE
:101AB0004F903F902F9008958F929F92AF92CF9228
:101AC000EF92FF920F931F93CF93DF93EC01262F9A
:101AD000898D9A8D009709F051C06A30D1F41D8626
:101AE0001C868D8948E0849F900111248E859F85F6
:101AF000820F931F9F878E8781E090E0DF91CF91C7
:101B00001F910F91FF90EF90CF90AF909F908F908B
:101B100008956D3089F3CC88AD888F898823C1F012
:101B20008C859D8536E0C39E800D911D11244885CE
:101B300059854817590764F44E855F851D861C86B4
:101B400038E0A39EC0011124840F951F9F878E87C4
:101B5000EA88FB88088919894E855F856C857D85B3
:101B6000CE010E94370B2C898C859D8546E0249FF1
:101B7000800D911D11249D878C87BECF6A3069F43A
:101B80001D861C86FC013896E4912D898E859F85E3
:101B9000E29F800D911D1124ADCF6D3009F4ACCFC3
:101BA000FC0134963491631708F4A6CF3296E49181
:101BB000E61708F4A1CFFC01329685909490462F49
:101BC000431B342F47E0349F800C911C1124F401F7
:101BD000329634913196E4913323A9F1EE2399F1B1
:101BE000CC88F4013596E491AD884F89442301F106
:101BF0000E2E000CFF0BE30FF11DCE9EA001CF9E19
:101C0000500D11246C857D85460F571F6885798599
:101C1000641775076CF44E855F851D861C86FC0174
:101C20003896E491AE9E400D511D11245F874E877A
:101C3000EA88FB88088919894E855F856C857D85D2
:101C4000CE010E94370BF4013496E4912C898C85E7
:101C50009D85E29F800D911D11248DCF6F927F9203
:101C60008F929F92AF92BF92CF92DF92EF92FF92AC
:101C70000F931F93CF93DF93EC016B015A0139014E
:101C80004801E881F9810284F385E02D0995E88116
:101C9000F9810288F389E02D87019301A501B6013E
:101CA000CE010995A501480D591D41505109E88102
:101CB000F9810288F389E02D9301B601CE010995DF
:101CC000E881F9810088F189E02D9401A501B60130
:101CD000CE010995C60CD71CB60161507109E88187
:101CE000F9810088F189E02D9401A501CE010995C3
:101CF000E881F9810688F789E02DCE01DF91CF9147
:101D00001F910F91FF90EF90DF90CF90BF90AF9019
:101D10009F908F907F906F9009946F927F928F9297
:101D20009F92AF92BF92CF92DF92EF92FF920F936A
:101D30001F93CF93DF935C01EB016A0149013801E6
:101D40008701DC01ED91FC916217730719F56416A8
:101D500075062CF0962D872D3A01C92ED82E9601A6
:101D6000261937092F5F3F4F048CF58DE02DA30115
:101D7000BE01C5010995DF91CF911F910F91FF9091
:101D8000EF90DF90CF90BF90AF909F908F907F901B
:101D90006F9008954615570591F42617370724F0DC
:101DA000892D4B01C22FD82F9E01281939092F5F89
:101DB0003F4F068CF78DE02DA601B401DACF0284E7
:101DC000F385E02D0995D501ED91FC910488F58905
:101DD000E02D83019401A601BE01C5010995D5013D
:101DE000ED91FC910688F789E02DC501DF91CF9137
:101DF0001F910F91FF90EF90DF90CF90BF90AF9029
:101E00009F908F907F906F900994EF92FF920F9325
:101E10001F93DC011A960D911C911B9718962D911A
:101E20003C911997ED91FC9100A0F1A1E02D7B016F
:101E300050E040E070E060E009951F910F91FF9045
:101E4000EF9008954F925F926F927F928F929F9240
:101E5000AF92BF92CF92DF92EF92FF920F931F93B8
:101E6000CF93DF936C012B015A0139014801DC014A
:101E7000ED91FC910284F385E02D0995E201640C5B
:101E8000751CD601ED91FC91C615D7055CF4008850
:101E9000F189E02D87019401A501BE01C6010995D4
:101EA0002196EFCF0688F789E02DC601DF91CF910B
:101EB0001F910F91FF90EF90DF90CF90BF90AF9068
:101EC0009F908F907F906F905F904F9009948F922A
:101ED0009F92AF92BF92CF92DF92EF92FF920F93B9
:101EE0001F93CF93DF93EC015B014A016901E88105
:101EF000F9810284F385E02D099595012C0D3D1D96
:101F000021503109E881F9810488F589E02D7801B3
:101F10008401A401B501CE010995E881F981068803
:101F2000F789E02DCE01DF91CF911F910F91FF90A6
:101F3000EF90DF90CF90BF90AF909F908F900994DB
:101F40008F929F92AF92BF92CF92DF92EF92FF92C9
:101F50000F931F93CF93DF93EC015B014A0169015B
:101F60007801E881F9810284F385E02D0995C80C98
:101F7000D91C860101501109E881F9810488F5898D
:101F8000E02D9501A401B501CE010995E881F98103
:101F90000688F789E02DCE01DF91CF911F910F9137
:101FA000FF90EF90DF90CF90BF90AF909F908F9079
:101FB0000994EF92FF920F931F93DC01ED91FC9136
:101FC00000A0F1A1E02D09951F910F91FF90EF90D6
:101FD00008950F931F93DC01ED91FC91068CF78D12
:101FE000E02D09951F910F9108950F931F93DC0128
:101FF000ED91FC91048CF58DE02D09951F910F91C9
:102000000895DC01ED91FC910084F185E02D0994A7
:102010003F924F925F926F927F928F929F92AF9278
:10202000BF92CF92DF92EF92FF920F931F93CF93C5
:10203000DF935C017B014A016901390187E0680E89
:10204000711C93E0759467949A95E1F72B01400E0B
:10205000511E10E000E0312CD0E0C0E0CE018770CE
:102060009927330C892B59F4FE0183E0F595E79508
:102070008A95E1F7E00FF11FE80DF91D349037FE66
:102080000AC021E030E0A701B5016C0F7D1F81E49B
:1020900093E00E9401102196CC16DD06F9F68FEF31
:1020A000E81AF80A060D171DE414F504A9F6DF91E5
:1020B000CF911F910F91FF90EF90DF90CF90BF9045
:1020C000AF909F908F907F906F905F904F903F90D8
:1020D00008952F923F924F925F926F927F928F92CC
:1020E0009F92AF92BF92CF92DF92EF92FF920F93A7
:1020F0001F93CF93DF9300D000D000D0CDB7DEB7D1
:102100003C016A013E832D83FC82EB825801A41AB4
:10211000B50AB7FE03C0B194A194B1088D809E802A
:10212000861A970A97FE03C09194819491088A14A5
:102130009B045CF0902F812F0D811E819D838E83E7
:102140009C2D8D2D6B01692F782F0C151D055CF0D2
:102150009D818E817E836D83692F782F902F812FB3
:102160008601C92ED82E1601201A310A2B012D8185
:102170003E81421A530A57FE03C0519441945108BC
:10218000710137FE03C03FEFE31AF30AF594E794B9
:102190008D819E81861797075CF5A1E0B0E0BA8338
:1021A000A983C016D1064CF1D301ED91FC910484B2
:1021B000F585E02D2B813C81A8016D817E818A14FB
:1021C0009B041CF04D815E81B801C3010995E418A0
:1021D000F508F7FE0AC02D813E8189819A81280F7A
:1021E000391F3E832D83E20CF31C0F5F1F4FD9CFA5
:1021F0002FEF3FEF3A832983D4CF26960FB6F8947A
:10220000DEBF0FBECDBFDF91CF911F910F91FF9029
:10221000EF90DF90CF90BF90AF909F908F907F9086
:102220006F905F904F903F902F9008950895209168
:102230002802260F3327331F21323105ECF4209179
:102240004C02FC0190E080E0243069F082E00895C7
:10225000A09128022191AC01485F5D4FA40FB52FDA
:10226000B11D2C930196861798F380912802680F70
:102270006093280280E0089581E0089510924C0256
:1022800081E080934E0210924D0261E082E10E9453
:10229000AA0561E083E10E94AA05E9EBF0E08081F4
:1022A0008E7F808380818D7F808388E48093B800D7
:1022B00085E48093BC000895CF93DF9391E09093E1
:1022C00007028823B9F0C091B800D091BA0080917C
:1022D000BC008A7B8093BC0060E082E10E94AA057A
:1022E00060E083E10E94AA050E943E11D093BA00EB
:1022F000C093B800DF91CF910895E091780280916A
:102300007702E81730F4F0E0EE51FE4F808190E064
:1023100008958FEF9FEF0895909178028091770252
:102320002FEF3FEF981748F4E92FF0E0EE51FE4F02
:10233000208130E09F5F90937802C90108958091D9
:10234000770290917802891B990B0895CF92DF92C2
:10235000EF92FF920F931F93CF93DF937C01CB01FA
:102360008A0120919702222389F0EB016B01C40EB0
:10237000D51ECC15DD0569F06991D701ED91FC9171
:102380000190F081E02DC7010995F3CF642F0E94E1
:102390001711C801DF91CF911F910F91FF90EF901E
:1023A000DF90CF900895CF93DF931F92CDB7DEB724
:1023B0006983209197022223F9F020919402203220
:1023C00058F021E030E0FC013383228390E080E08C
:1023D0000F90DF91CF91089580919502E82FF0E062
:1023E000EE53FE4F998190838F5F80939502809387
:1023F000940281E090E0ECCF61E0CE0101960E9472
:102400001711F7CFCF92DF92EF92FF920F931F93A6
:10241000CF93DF93D091940281E0D13208F09CC039
:10242000C09196020E9444066B017C0180914C028F
:1024300081116CC082E080934C0281E080934E0257
:102440008FEF80934B0210927002D0936F02A2EC38
:10245000B1E0EFE4F2E080E0D8138DC01092710299
:1024600080917102CC0FC82BC093710280914D02F4
:10247000813009F084C010924D020E9444066B0125
:102480007C01809171028093BB0080910302909146
:102490000402A0910502B0910602892B8A2B8B2B96
:1024A000A1F00E94440600910302109104022091C1
:1024B0000502309106026C197D098E099F090617E5
:1024C00017072807390708F442C08091BC0083FD34
:1024D000D8CF85EC8093BC000E9444066B017C0140
:1024E00080914C02823009F44CC080914B028F3FA6
:1024F00009F469C080914B02803209F466C0809172
:102500004B02803309F463C084E026C0809103024B
:1025100090910402A0910502B0910602892B8A2BAA
:102520008B2B09F483CF0E94440600910302109183
:10253000040220910502309106026C197D098E0972
:102540009F09061717072807390708F06FCF8091F2
:1025500002020E945C1185E0109295021092940292
:1025600010929702DF91CF911F910F91FF90EF9002
:10257000DF90CF9008959D9191938F5F6DCF85EE01
:10258000A9CF8091030290910402A0910502B0911D
:102590000602892B8A2B8B2B09F4A2CF0E944406BA
:1025A000009103021091040220910502309106026D
:1025B0006C197D098E099F09061717072807390727
:1025C00008F08ECFC4CF80E0C7CF82E0C5CF83E0D4
:1025D000C3CFEF92FF920F931F93CF93DF937C01B2
:1025E000C62F80915E0390915F03009709F459C054
:1025F0002091620331E0309397022093960210926B
:10260000950210929402DC01ED91FC910190F08111
:10261000E02D60E009958701EE24E394F12CD1E0F0
:10262000C15080915E0390915F03CF3F91F1B0E282
:10263000EB16F104D8F00E94021280915E03909193
:102640005F0320916203D093970220939602109229
:10265000950210929402DC01ED91FC910190F081C1
:10266000E02D60E00995EE24E394F12C80915E0367
:1026700090915F03F8016491DC01ED91FC91019070
:10268000F081E02D0995BFEFEB1AFB0A0F5F1F4F9A
:10269000C7CFDF91CF911F910F91FF90EF900C94D6
:1026A0000212E0916E03F0916F03908180917403A8
:1026B0008095892380838701C15008F438C0F801D0
:1026C000849120915C0330915D03232B29F00E94BB
:1026D000170B0F5F1F4FF0CF28E030E040E8E0918C
:1026E0006A03F0916B0390917203582F5423D9F031
:1026F0005081952B9083E0916C03F0916D03908154
:1027000050917303952B9083E0916C03F0916D03CE
:102710005081909173039095952390834695215015
:102720003109E9F6D6CF508190959523E3CFDF911B
:10273000CF911F910F91FF90EF9008951F93CF932A
:10274000DF93EC018D8D9E8D009721F1162F29A12D
:1027500031E03093970220939602109295021092E6
:102760009402DC01ED91FC910190F081E02D60E09C
:1027700009958D8D9E8DDC01ED91FC910190F0818C
:10278000E02D612F09958D8D9E8DDF91CF911F9149
:102790000C940212ADA5BEA59C918BA980958923AE
:1027A0008C938B8D9C8D892B31F0862FDF91CF916F
:1027B0001F910C94170B28E030E080E8A9A5BAA57A
:1027C00099A9462F4823C1F04C91942B9C93ABA51B
:1027D000BCA59C914AA9942B9C93ABA5BCA54C91FC
:1027E0009AA9909594239C9386952150310931F7AD
:1027F000DF91CF911F9108954C9190959423E6CF4E
:102800001F93CF93DF93EC01162F8D8D9E8D892B17
:10281000B1F12DA93EA94FA958AD60E074E284EF53
:1028200090E00E94C021205131094109510956957B
:102830004795379527952093B80066EA111167EA06
:10284000CE010E949E138D8D9E8D892B41F129AD65
:102850003AAD4BAD5CAD60E074E284EF90E00E9475
:10286000C0212051310941095109569547953795A5
:1028700027952093B800DF91CF911F9108958B8DFC
:102880009C8D892B21F08EAD9FAD0E941E0BEFA574
:10289000F8A990818CA9809589238083CECFEFA55C
:1028A000F8A980819CA9892B8083E5CF90E080E006
:1028B00008952091470330914803C901079697FD79
:1028C000079623E0959587952A95E1F72091450392
:1028D00030914603829FA001839F500D929F500D1F
:1028E000112470E060E080916003909161030C948A
:1028F00012230F931F93482FEFE7FAE06491EBE662
:10290000FAE0E4918111462FF0E0EE0FFF1FE95A43
:10291000F54F8591949100E412E42FE030E00E949D
:102920000118611571058105910529F06F5F7F4FD1
:102930008F4F9F4F9F701F910F9108950E940D23FD
:10294000FB0101900020E9F73197AF01461B570BBF
:10295000DC01ED91FC910280F381E02D09948F92CE
:102960009F92AF92BF92EF92FF920F931F93CF93DC
:10297000DF93CDB7DEB7A1970FB6F894DEBF0FBED9
:10298000CDBF7C01FA01CB0119A2223008F42AE064
:102990008E010F5D1F4F822E912CB12CA12CBF01F7
:1029A000A50194010E94C021F901CA016A300CF509
:1029B000605DD8016E938D01232B242B252B79F795
:1029C00090E080E0109721F0BD01C7010E94A014A3
:1029D000A1960FB6F894DEBF0FBECDBFDF91CF91A9
:1029E0001F910F91FF90EF90BF90AF909F908F90AD
:1029F0000895695CDECF4F925F926F927F928F92C3
:102A00009F92AF92BF92CF92DF92EF92FF92CF93BD
:102A1000DF93EC016A017B01AB019601CB01B601AA
:102A20000E94BB2166E571E081111AC04601570181
:102A3000E894B7F82FEF3FEF4FE75FE7C501B40128
:102A40000E94BB21811126C02FEF3FEF4FE75FE7C8
:102A5000C501B4010E94F11F1816E4F46AE571E0A3
:102A6000CE010E94A0147C0162E671E0CE010E94BA
:102A7000A0148E0D9F1DDF91CF91FF90EF90DF90FE
:102A8000CF90BF90AF909F908F907F906F905F900E
:102A90004F9008952FEF3FEF4FE75FE4C701B60176
:102AA0000E94492118161CF46EE571E0D9CF2FEF72
:102AB0003FEF4FE75FECC701B6010E94F11F87FDB2
:102AC000F3CF20E030E0A901C701B6010E94F11F59
:102AD000B12CA12C87FF09C06DE2CE010E94AC078A
:102AE0005C01F7FAF094F7F8F0942AE037ED43EA46
:102AF0005BE3C701B6010E94851F2B013C010E94C8
:102B000068206B017C010E9497209B01AC01C301EE
:102B1000B2010E94841F2B013C012AE0B701A601EB
:102B2000CE010E94AF147C01EA0CFB1C6EE2CE01C8
:102B30000E94AC07E80EF91E20E030E040E251E4CC
:102B4000C301B2010E944E212B013C010E9468206A
:102B50004B01B12CA12C2AE0B501A401CE010E94A9
:102B6000AF14E80EF91EC501B4010E9497209B0125
:102B7000AC01C301B2010E94841F20E030E040E2BA
:102B800051E40E944E210E946820AB0170E060E099
:102B90002AE0CE010E94AF14E80EF91E65CFCF9255
:102BA000DF92EF92FF920F931F93CF93DF938C01ED
:102BB0006B01770FEE08FF08F7FE21C06DE20E945F
:102BC000AC07EC0144275527BA014C195D096E0981
:102BD0007F092AE0C8010E94AF14C80FD91F62E61E
:102BE00071E0C8010E94A0148C0F9D1FDF91CF914E
:102BF0001F910F91FF90EF90DF90CF9008952AE002
:102C0000B701A6010E94AF14EC01E9CF0C94A01407
:102C100085ED8093BC008091030290910402A09105
:102C20000502B09106020796A11DB11D23E0B695DD
:102C3000A795979587952A95D1F72091BC0024FDFB
:102C400003C010924C020895409103025091040277
:102C50006091050270910602452B462B472B69F3C4
:102C60000097A105B10541F02AE22A95F1F700C0CD
:102C70000197A109B109E1CF809102020C945C1186
:102C80001F920F920FB60F9211242F933F938F93A1
:102C90009F93AF93BF938091900290919102A091E6
:102CA0009202B091930230918B0223E0230F2D37D3
:102CB00058F50196A11DB11D20938B0280939002BF
:102CC00090939102A0939202B093930280918C0210
:102CD00090918D02A0918E02B0918F020196A11D5C
:102CE000B11D80938C0290938D02A0938E02B093BD
:102CF0008F02BF91AF919F918F913F912F910F9034
:102D00000FBE0F901F90189526E8230F0296A11D65
:102D1000B11DD2CF1F920F920FB60F9211242F9395
:102D20003F934F935F936F937F938F939F93AF9353
:102D3000BF93EF93FF9388E992E00E943108FF91DF
:102D4000EF91BF91AF919F918F917F916F915F9123
:102D50004F913F912F910F900FBE0F901F9018959C
:102D60001F920F920FB60F9211242F938F939F9360
:102D7000EF93FF93E091A802F091A9028081E09186
:102D8000AE02F091AF0282FD1BC090818091B10232
:102D90008F5F8F732091B202821741F0E091B102F0
:102DA000F0E0E856FD4F958F8093B102FF91EF91CF
:102DB0009F918F912F910F900FBE0F901F9018959C
:102DC0008081F4CF1F920F920FB60F9211242F9390
:102DD0003F934F935F936F937F938F939F93AF93A3
:102DE000BF93EF93FF938091B900887F803609F4F9
:102DF0004AC0F0F5883209F4A7C018F5803109F40B
:102E00009BC0B8F4882309F4F9C0883009F494C051
:102E1000FF91EF91BF91AF919F918F917F916F91B2
:102E20005F914F913F912F910F900FBE0F901F9088
:102E30001895883109F488C0803251F780934B028D
:102E400014C0803409F49DC040F48033B9F3883352
:102E5000F9F680934B0285ECB0C0803509F485C04B
:102E6000883509F496C0883499F60E940816D0CFA8
:102E7000883909F48CC038F5883729F050F4883641
:102E800011F0803729F683E080934C0210924A02B9
:102E900057C0883809F47BC0803919F0803809F0B0
:102EA000B7CF80914A02803208F071C0E0914A02A7
:102EB00081E08E0F80934A028091BB00F0E0E65DD6
:102EC000FD4F80833DC0803B39F0E0F4803A09F447
:102ED00079C0883A09F09CCF84E080934C0210922C
:102EE000290210922802E0917502F091760209956C
:102EF0008091280281110FC081E0809328021092F6
:102F0000080209C0803C09F4A6CF883C09F4A3CF8D
:102F1000883B09F07DCFE091290281E08E0F8093FC
:102F20002902F0E0E85FFD4F80818093BB00909123
:102F300029028091280229C0809171028093BB00F0
:102F400085EC8093BC0064CF9091700280916F02F9
:102F5000981758F5E091700281E08E0F809370020F
:102F6000F0E0E15BFD4F8081E9CFE091700281E00C
:102F70008E0F809370028091BB00F0E0E15BFD4F0B
:102F800080839091700280916F029817C8F285E853
:102F9000D8CFE091700281E08E0F80937002809113
:102FA000BB00F0E0E15BFD4F808380914E02811118
:102FB0005CCF81E080934D0284EA8093BC00109244
:102FC0004C0226CF85EC8093BC0010924C0280917D
:102FD0004A02803230F4E0914A02F0E0E65DFD4FB3
:102FE000108260914A0270E0E0917302F0917402E5
:102FF0008AE292E0099510924A020ACF10924B029F
:1030000034CFCF92DF92EF92FF920F931F93E82F6E
:10301000F92F05C0015011092109310961F1908191
:1030200096239417B9F305C00150110921093109FC
:1030300011F1908196239413F7CFC12CD12CE12C60
:10304000F12C0AC08FEFC81AD80AE80AF80A0C1542
:103050001D052E053F0579F080818623841791F3A5
:103060006C2D7D2D8E2D9F2D1F910F91FF90EF9038
:10307000DF90CF90089560E070E080E090E01F91D5
:103080000F91FF90EF90DF90CF900895CF93DF9353
:10309000E8E9F2E01382128288EE93E0A0E0B0E06B
:1030A00084839583A683B7832AE031E0318320832C
:1030B00025EC30E03587248724EC30E037872687FD
:1030C00020EC30E0318B208B21EC30E0338B228BF5
:1030D00022EC30E0358B248B26EC30E0378B268BCE
:1030E000118E128E138E148EC5E3D3E01B821A82CA
:1030F0008C839D83AE83BF838CE191E09983888329
:10310000A1E8B3E089E015968C9315978BE01696AD
:103110008C931697EEE7FAE0E4911796EC931797E5
:10312000EAE6FAE0E4911896EC93189740E85EE33B
:1031300060E070E01D964D935D936D937C93509786
:10314000E1E4F3E01382128220E830E03583248347
:1031500080E490E0978386833187208793878287F6
:10316000168A158614861786168681E0858B848BD1
:103170002FEF3FEF338B228B318B208B878B108E81
:10318000128E118E8EE291E091838083148E138EC5
:10319000D68FC58F10A2178E8FEF84A385A386A329
:1031A00087A387E080A780E89AE1A6E0B0E085AB3E
:1031B00096ABA7ABB0AF80EA96E8A1E0B0E081AFF4
:1031C00092AFA3AFB4AF80E586AF17AEDF91CF91DA
:1031D0000895789484B5826084BD84B5816084BD8F
:1031E00085B5826085BD85B5816085BD80916E00A5
:1031F000816080936E0010928100809181008260D6
:103200008093810080918100816080938100809112
:1032100080008160809380008091B1008460809301
:10322000B1008091B00081608093B00080917A00FD
:10323000846080937A0080917A00826080937A0023
:1032400080917A00816080937A0080917A00806812
:1032500080937A001092C100109278021092770247
:1032600010929502109294020E943E118AEA97E011
:1032700090937602809375028BEA97E090937402A4
:1032800080937302E091A802F091A90282E080830A
:10329000E091A402F091A5021082E091A602F091C3
:1032A000A7028FEC80831092B002E091AC02F09103
:1032B000AD0286E08083E091AA02F091AB028081AA
:1032C00080618083E091AA02F091AB0280818860E6
:1032D0008083E091AA02F091AB02808180688083B4
:1032E000E091AA02F091AB0280818F7D8083809172
:1032F000600390916103892B11F10E945914209170
:103300004703309148038091450390914603213251
:1033100031050CF092C0B9016052710977FF02C00B
:103320006F5F7F4F759567958357910997FD01965C
:1033300000E210E023E730E04AE855E091C0209138
:10334000470330914803C901079697FD0796B3E0FC
:1033500095958795BA95E1F72091450330914603FD
:10336000AC01429FC001439F900D529F900D1124CC
:103370000E94E8219093610380936003892B09F0F8
:10338000BCCF62E0809186030E94F6052FB7F894C7
:103390008091900290919102A0919202B09193023B
:1033A0002FBF805D9740A109B10980938A03909354
:1033B0008B03A0938C03B0938D0387E380939303D7
:1033C00060E08EE00E94F60560E08FE00E94F60566
:1033D00061E084E00E94F605AEE12A2E312C812CBA
:1033E000B4E29B2EB4EFAB2EB12CC0E04C2EC0E06B
:1033F0005C2EF8E26F2E712C8EE00E9432069093C4
:103400008A028093890268EE73E080E090E00E9477
:1034100069060E949B06882359F0809187038B30B0
:1034200038F08D3008F4FFC18551823008F430C285
:1034300060E070E080EC9FE712C2B901605471094E
:1034400077FF02C06F5F7F4F759567958255910931
:1034500097FD019600E410E022E530E04AE657E0EF
:10346000959587950E94081082E080936303809170
:103470005E0390915F03892B09F4DFC08CE3809396
:1034800062031092780210927702109295021092C5
:1034900094020E943E118AEA97E09093760280930C
:1034A00075028BEA97E09093740280937302809187
:1034B000690387FD1EC061E00E94F60561E080910E
:1034C00069030E94AA0561E070E080E090E00E943C
:1034D000690660E0809169030E94AA056AE070E0D5
:1034E00080E090E00E94690661E0809169030E949B
:1034F000AA0580915E0390915F03892B09F45CC15A
:1035000020917603309177034091780350917903AD
:1035100060E074E284EF90E00E94C0212051310904
:103520004109510956954795379527952093B8003D
:1035300064E086E895E00E94E912609147036150DB
:1035400081E493E00E949E1364E082E895E00E948B
:10355000E9128091630360E1813009F064E181E464
:1035600093E00E949E1364E08EE795E00E94E912CA
:103570008FE880937E0380914503909146038038C5
:10358000910509F032C1809147039091480380343E
:10359000910509F03AC180916303813009F023C19C
:1035A0008FE980937E03C2E16AED81E493E00E949B
:1035B0009E136C2F81E493E00E949E1361E881E4E6
:1035C00093E00E949E1360917E0381E493E00E9449
:1035D0009E1369ED81E493E00E949E138091630342
:1035E00062E2813009F061EF81E493E00E949E1372
:1035F00066E088E795E00E94E91280915E03909171
:103600005F03892B09F405C120917A0330917B0374
:1036100040917C0350917D0360E074E284EF90E080
:103620000E94C02120513109410951095695479501
:10363000379527952093B800A4CE61E08091670369
:103640000E94F60561E0809168030E94F605809172
:103650006703082E000C990BFC01EF59F54FE4911C
:10366000F0E0EE0FFF1FE75CF54F259134913093AA
:103670006F0320936E03FC01EB58F54FE491E09348
:10368000740380916803082E000C990BFC01EF591C
:10369000F54FE491F0E0EE0FFF1FE75CF54FA591C9
:1036A000B491B0937103A0937003FC01EB58F54FF4
:1036B000E491E09375038C91E82BEC9380915C038B
:1036C00090915D03892B09F434C0CFB7F8948091B1
:1036D0007202811127C0EBE6FAE08491EFE7FAE08D
:1036E0009491E82FF0E0EE0FFF1FE15DF54FA591FB
:1036F000B491EC91E92321F461E08AE00E94AA05EB
:1037000061E08AE00E94F6058CB580618CBD8CB5C5
:1037100080648CBD61E08DE00E94F60561E08BE085
:103720000E94F605809172028F5F80937202CFBF74
:10373000BECE61E0809165030E94F60561E0809154
:1037400066030E94F60580916503082E000C990B14
:10375000FC01EF59F54FE491F0E0EE0FFF1FE75C3D
:10376000F54F2591349130936B0320936A03FC014C
:10377000EB58F54FE491E093720380916603082EB5
:10378000000C990BFC01EF59F54FE491F0E0EE0FBE
:10379000FF1FE75CF54FA591B491B0936D03A09323
:1037A0006C03FC01EB58F54FE491E09373038C91AB
:1037B000E095E823EC937BCE80915C0390915D03D0
:1037C000892B31F080917F03909180030E941E0B22
:1037D000E0917003F0917103908180917503809561
:1037E00089238083A5CE8FECDCCE8036910569F4E9
:1037F0008091470390914803409739F48091630387
:10380000813029F480E180937E03C2E0CDCE8FEA3F
:10381000FACFE0917003F09171038081909175036C
:10382000892B8083AECD6091820370E090E080E0D0
:103830000E9499202DEC3CEC4CEC5DE30E944E2163
:103840006B017C016091810370E090E080E00E9458
:1038500099209B01AC01C701B6010E94851F6093AE
:1038600085027093860280938702909388020E945B
:103870009B06882341F0809187038C3009F409C2AC
:10388000C8F48B3081F160E070E080EC9FE753C0BA
:10389000609181037091820376276727762790E0F5
:1038A00080E00E9497202DEC3CEC4CEC5DE30E9404
:1038B0004E21D5CF8551823030F7C09183036C2FD4
:1038C00070E0762F662766277F7780918403682BC8
:1038D00090E080E00E9497202DEC3CEC4CEC5DE306
:1038E0000E944E21F2C16091830370E090E080E07D
:1038F0000E9497206B017C01C0918403C7FF0AC01E
:10390000AC019B0160E070E080E89FEB0E94841FA7
:103910006B017C01CF706C2F70E090E080E00E9422
:1039200099202DEC3CEC4CEC5DE30E944E21A7016C
:1039300096010E94851F609381027093820280939A
:1039400083029093840268EE73E080E090E00E942E
:1039500069068FE00E9432069093800280937F0276
:1039600068EE73E080E090E00E94690681E00E94CA
:10397000791470937E0260937D0280E00E94791436
:1039800020917D0230917E02620F731F072E000C82
:10399000880B990B0E9499209B01AC0160E074E2B6
:1039A00084E799E40E94F61F20E030E040EF50E405
:1039B0000E94F61F20E030E040E752E40E94F61F2C
:1039C0009B01AC016091790270917A0280917B0237
:1039D00090917C020E94851F6093790270937A0215
:1039E00080937B0290937C0268EE73E080E090E02D
:1039F0000E9469068091890290918A02803951E083
:103A000095070CF075C19C012150310924353140D6
:103A100008F05FC161E084E00E94AA0560ED77E0F4
:103A200080E090E00E94690660E084E00E94AA05C0
:103A300060E177E280E090E00E9469060E945914FC
:103A400021E030E03093540320935303309352032A
:103A50002093510381E08093550380935603109285
:103A60004E0310924D031092500310924F0365E6DF
:103A700071E081E493E00E940616609189027091E2
:103A80008A0281E493E00E94CF1510924E031092B7
:103A90004D034AE050E05093500340934F0363E7D7
:103AA00071E081E493E00E940616409181025091FA
:103AB0008202609183027091840281E493E00E940B
:103AC000FB1410924E0310924D0384E190E090930A
:103AD000500380934F0360E871E081E493E00E941B
:103AE000061640918502509186026091870270917E
:103AF000880281E493E00E94FB1410924E0310921E
:103B00004D033092500320924F036DE871E081E441
:103B100093E00E94061660917F027091800281E41A
:103B200093E00E94CF1510924E0310924D037092B5
:103B3000500360924F036DE971E081E493E00E94CD
:103B400006164091790250917A0260917B02709141
:103B50007C0281E493E00E94FB1480915E039091CB
:103B60005F03892B09F4C9C0209176033091770354
:103B70004091780350917903C501B4010E94C0219E
:103B80002051310941095109569547953795279597
:103B90002093B80065E08AE29AE00E94E912609101
:103BA0004503615081E493E00E949E1320914703F6
:103BB00030914803C901079697FD079633E0959524
:103BC00087953A95E1F72091450330914603829F0E
:103BD0008001839F100D929F100D1124C0916003EE
:103BE000D091610380915E0390915F030C0F1D1FC4
:103BF000009709F42EC12091620331E030939702BF
:103C0000209396021092950210929402DC01ED919D
:103C1000FC910190F081E02D60E40995EE24E3949D
:103C2000F12C80915E0390915F03C017D10709F4D6
:103C30007BC0B0E2EB16F104E0F00E94021280912A
:103C40005E0390915F032091620331E0309397020D
:103C5000209396021092950210929402DC01ED914D
:103C6000FC910190F081E02D60E40995EE24E3944D
:103C7000F12C80915E0390915F036991DC01ED91DD
:103C8000FC910190F081E02D0995BFEFEB1AFB0A42
:103C9000C8CFC09183036C2F70E090E080E00E9459
:103CA00097206B017C01609184036F7070E090E05D
:103CB00080E00E9499202DEC3CEC4CEC5DE30E94EE
:103CC0004E21A70196010E94851FC7FF34CE905850
:103CD00032CE865591408435914008F0AFCE61E0F8
:103CE00084E00E94AA0568EE73E080E090E09ACE3E
:103CF00060E084E00E94AA05A1CE80915C039091CF
:103D00005D03892B31F080917F03909180030E94A5
:103D10001E0BE0917003F091710390818091750307
:103D200080958923808336CF0E94021280915E03A2
:103D300090915F03892B09F4CEC020917A033091D2
:103D40007B0340917C0350917D03C501B4010E9427
:103D5000C0212051310941095109569547953795A0
:103D600027952093B80069EA71E088E992E00E9403
:103D7000A01462E671E088E992E00E94A01460E875
:103D800071E088E992E00E94061640918502509108
:103D90008602609187027091880288E992E00E9411
:103DA000FB1463E771E088E992E00E9406164091F7
:103DB000810250918202609183027091840288E9AD
:103DC00092E00E94FB1465E671E088E992E00E94AF
:103DD00006166091890270918A0288E992E00E9439
:103DE000CF156DE871E088E992E00E9406166091B7
:103DF0007F027091800288E992E00E94CF156DE900
:103E000071E088E992E00E94061640917902509193
:103E10007A0260917B0270917C0288E992E00E94B4
:103E2000FB1469EA71E088E992E00E94A01462E65E
:103E300071E088E992E00E94A0144114510409F451
:103E4000DBCA0E941D08882309F4D6CA0E9400001C
:103E5000D0CAE0916E03F0916F038081909174035A
:103E6000892B80830C171D0709F460CF899120915D
:103E70005C0330915D03232B19F00E94170BF2CFE6
:103E800028E030E090E8E0916A03F0916B03409104
:103E90007203592F5823D9F05081452B4083E0916C
:103EA0006C03F0916D03408150917303452B408367
:103EB000E0916C03F0916D03508140917303409544
:103EC00045234083969521503109E9F6CBCF5081A7
:103ED00040954523E3CFE0917003F0917103808119
:103EE00090917503892B80833ECF8EE291E0909371
:103EF0004203809341038091600390916103009796
:103F000011F00C94842208955058BB27AA270E94D0
:103F10009C1F0C940F210E94012138F00E9408215F
:103F200020F039F49F3F19F426F40C94FE200EF48F
:103F3000E095E7FB0C94F820E92F0E94202158F32C
:103F4000BA17620773078407950720F079F4A6F57E
:103F50000C9442210EF4E0950B2EBA2FA02D0B01EC
:103F6000B90190010C01CA01A0011124FF27591BBE
:103F700099F0593F50F4503E68F11A16F040A22FC4
:103F8000232F342F4427585FF3CF46953795279535
:103F9000A795F0405395C9F77EF41F16BA0B620B34
:103FA000730B840BBAF09150A1F0FF0FBB1F661F7B
:103FB000771F881FC2F70EC0BA0F621F731F841FBE
:103FC00048F4879577956795B795F7959E3F08F0E4
:103FD000B0CF9395880F08F09927EE0F97958795A6
:103FE00008950E94D42008F481E008950E940A20D8
:103FF0000C940F210E94082158F00E94012140F0EA
:1040000029F45F3F29F00C94F82051110C944321BE
:104010000C94FE200E94202168F39923B1F35523CC
:1040200091F3951B550BBB27AA27621773078407CB
:1040300038F09F5F5F4F220F331F441FAA1FA9F361
:1040400035D00E2E3AF0E0E832D091505040E6954F
:10405000001CCAF72BD0FE2F29D0660F771F881FB0
:10406000BB1F261737074807AB07B0E809F0BB0BA3
:10407000802DBF01FF2793585F4F3AF09E3F5105B7
:1040800078F00C94F8200C9443215F3FE4F3983EC1
:10409000D4F3869577956795B795F7959F5FC9F7A0
:1040A000880F911D9695879597F90895E1E0660F21
:1040B000771F881FBB1F621773078407BA0720F09A
:1040C000621B730B840BBA0BEE1F88F7E095089503
:1040D0000E94282188F09F5798F0B92F9927B7514F
:1040E000B0F0E1F0660F771F881F991F1AF0BA959C
:1040F000C9F714C0B13091F00E944221B1E0089597
:104100000C944221672F782F8827B85F39F0B93F88
:10411000CCF3869577956795B395D9F73EF490954E
:104120008095709561957F4F8F4F9F4F0895E894CC
:1041300009C097FB3EF490958095709561957F4FEF
:104140008F4F9F4F9923A9F0F92F96E9BB2793959D
:10415000F695879577956795B795F111F8CFFAF4AD
:10416000BB0F11F460FF1BC06F5F7F4F8F4F9F4FDE
:1041700016C0882311F096E911C0772321F09EE83C
:10418000872F762F05C0662371F096E8862F70E0A2
:1041900060E02AF09A95660F771F881FDAF7880F7C
:1041A0009695879597F90895990F0008550FAA0BD2
:1041B000E0E8FEEF16161706E807F907C0F012163A
:1041C0001306E407F50798F0621B730B840B950B3D
:1041D00039F40A2661F0232B242B252B21F4089592
:1041E0000A2609F4A140A6958FEF811D811D08952F
:1041F00097F99F6780E870E060E008959FEF80EC9A
:10420000089500240A94161617061806090608953C
:1042100000240A9412161306140605060895092EA2
:104220000394000C11F4882352F0BB0F40F4BF2B11
:1042300011F460FF04C06F5F7F4F8F4F9F4F089551
:1042400057FD9058440F551F59F05F3F71F0479547
:10425000880F97FB991F61F09F3F79F0879508952C
:10426000121613061406551FF2CF4695F1DF08C04B
:10427000161617061806991FF1CF86957105610568
:1042800008940895E894BB2766277727CB0197F910
:1042900008950E94D42008F48FEF08950E946121B0
:1042A0000C940F210E94012138F00E94082120F077
:1042B000952311F00C94F8200C94FE2011240C94FA
:1042C00043210E94202170F3959FC1F3950F50E088
:1042D000551F629FF001729FBB27F00DB11D639FB8
:1042E000AA27F00DB11DAA1F649F6627B00DA11D5E
:1042F000661F829F2227B00DA11D621F739FB00D04
:10430000A11D621F839FA00D611D221F749F332773
:10431000A00D611D231F849F600D211D822F762F0C
:104320006A2F11249F5750409AF0F1F088234AF0E9
:10433000EE0FFF1FBB1F661F771F881F9150504055
:10434000A9F79E3F510580F00C94F8200C9443216E
:104350005F3FE4F3983ED4F3869577956795B795DC
:10436000F795E7959F5FC1F7FE2B880F911D9695F6
:10437000879597F908950E94D420880B990B08958A
:10438000A1E21A2EAA1BBB1BFD010DC0AA1FBB1F59
:10439000EE1FFF1FA217B307E407F50720F0A21BCB
:1043A000B30BE40BF50B661F771F881F991F1A9438
:1043B00069F760957095809590959B01AC01BD0162
:1043C000CF010895EE0FFF1F0590F491E02D0994A1
:1043D0000F931F93CF93DF938230910510F482E007
:1043E00090E0E0919603F091970330E020E0B0E098
:1043F000A0E0309799F42115310509F44AC0281B33
:10440000390B24303105D8F58A819B8161157105FE
:1044100089F1FB0193838283FE0111C040815181A8
:104420000281138148175907E0F04817590799F49A
:10443000109761F012960C93129713961C93329674
:10444000CF01DF91CF911F910F91089500939603B3
:1044500010939703F4CF2115310551F042175307FC
:1044600038F0A901DB019A01BD01DF01F801C1CFDC
:10447000EF01F9CF9093970380939603CDCFFE0180
:10448000E20FF31F819391932250310939832883DE
:10449000D7CF2091940330919503232B41F42091A1
:1044A00002013091030130939503209394032091EE
:1044B0000001309101012115310541F42DB73EB7BE
:1044C0004091040150910501241B350BE0919403A8
:1044D000F0919503E217F307A0F42E1B3F0B28176A
:1044E000390778F0AC014E5F5F4F2417350748F06D
:1044F0004E0F5F1F509395034093940381939193C4
:104500009FCFF0E0E0E09CCFCF93DF930097E9F0FE
:10451000FC01329713821282A0919603B091970307
:10452000ED0130E020E01097A1F420813181820F6D
:10453000931F20919403309195032817390709F0B0
:1045400061C0F0939503E0939403DF91CF910895B8
:10455000EA01CE17DF07E8F54A815B819E0141152C
:104560005105B1F7E901FB83EA8349915991C40FE1
:10457000D51FEC17FD0761F4808191810296840FAD
:10458000951FE90199838883828193819B838A8324
:10459000F0E0E0E012968D919C9113970097B9F5A9
:1045A0002D913C911197CD010296820F931F20917E
:1045B0009403309195032817390739F6309751F550
:1045C0001092970310929603B0939503A0939403CF
:1045D000BCCFD383C28340815181840F951FC817FC
:1045E000D90761F44E5F5F4F88819981480F591F49
:1045F000518340838A819B81938382832115310576
:1046000009F0B0CFF0939703E09396039ECFFD019E
:10461000DC01C0CF13821282D7CF81E090E0F89402
:104620000C941923DC0101C06D9341505040E0F718
:10463000089515E0C6E4D5E004C0FE010E94E22121
:0C4640002196C734D107C9F7F894FFCFCA
:10464C00000098038000000000005308B307E00747
:10465C00A0081108EF07030800000000D311A611F1
:10466C00561471059F118C117D11000000005C0D1A
:10467C00B30756141611670A71050110D90FF50FFF
:10468C00E90F69107105220B0014D709200A220FBB
:10469C00050F8D0E2E0E6E616E00696E66006F76C4
:1046AC0066000D0A00536F696C48756D6964697416
:1046BC00793A0054656D70657261747572653A0073
:1046CC0041697248756D69646974793A004C69671F
:1046DC006874496E74656E736974793A00546F74BA
:1046EC00616C57617465723A002A2A2A2A2A2A2A8E
:1046FC002A2A2A2A2A2A2A2A2A2A2A2A2A2A2A2A0E
:02470C002A0081
:00000001FF
